{
  "contractName": "HappyValentinesDay",
  "abi": [
    {
      "constant": true,
      "inputs": [],
      "name": "love",
      "outputs": [
        {
          "internalType": "string",
          "name": "",
          "type": "string"
        }
      ],
      "payable": false,
      "stateMutability": "view",
      "type": "function"
    }
  ],
  "bytecode": "0x608060405260405180612fa00160405280612f708152602001610282612f70913960009080519060200190610035929190610048565b5034801561004257600080fd5b506100ed565b828054600181600116156101000203166002900490600052602060002090601f016020900481019282601f1061008957805160ff19168380011785556100b7565b828001600101855582156100b7579182015b828111156100b657825182559160200191906001019061009b565b5b5090506100c491906100c8565b5090565b6100ea91905b808211156100e65760008160009055506001016100ce565b5090565b90565b610186806100fc6000396000f3fe608060405234801561001057600080fd5b506004361061002b5760003560e01c8063dff5323114610030575b600080fd5b6100386100b3565b6040518080602001828103825283818151815260200191508051906020019080838360005b8381101561007857808201518184015260208101905061005d565b50505050905090810190601f1680156100a55780820380516001836020036101000a031916815260200191505b509250505060405180910390f35b60008054600181600116156101000203166002900480601f0160208091040260200160405190810160405280929190818152602001828054600181600116156101000203166002900480156101495780601f1061011e57610100808354040283529160200191610149565b820191906000526020600020905b81548152906001019060200180831161012c57829003601f168201915b50505050508156fea265627a7a72315820cf1a8734328335eae1e708b20190524785c89698bb2eb4cb190d95bd7a62eb3b64736f6c6343000510003220202020202020202020202020202020202020202020202020202020202020202020202020202020202020202020202020202020202020202020202020202020202020202020202020202020202020202020202020202020202020202020202020202020202020202020202020202020202020202020202020202020202020202020202020202020202020202020202020202020202020202020202020202020202020202020202020202020202020202020202020202020202020202020202020202020202020202020202020202a2a2a2a20202020202020202020202020202a5d5d5d5d2a20202020202020202020202020202020202020202020202020202020202020202020202020202020202020202020202020202020202020202020202020202020202020202020202020202020202020202020202020202020202020202020202020202020202a2a2a2a2a2c6c5d5d2a2a202020202020202020202a2a6c2a2a2a2a2a2a2020202020202020202a2a2c5b6f6f2c60202020202020202020202020202020202020202020202020202020202020202020202020202020202020202020202020202020202020202020202020202020202020202020202020202020202020202020202020202020202020202020202020202c6f5d5d5d5d5d5d2a2a6c4f4f4f4f4f4f6c202020202a2a2a2a2a2a2a2a2a2a2a2a2a2a2a2a2a2a2a2a2a2a2a20202a6c602a2a2a2a2a2a2a202020202020202020202020202020202020202020202020202020202020202020202020202020202020202020202020202020202020202020202020202020202020202020202020202020202020202020202020202020202020204f6f6f6f6f6f6f4f4f4f4f404f4f4f4f4f6f5b2a2a5b2a2a2a2a2a2a2a2a2a2a2a2a2a2a2a2a2a2a2a2a2a2a2a2020202a602a2a2a2a2a2a2a6f6c202020202020202020202020202020202020202020202020202020202020202020202020202020202020202020202020202020202020202020202020202020202020202020202020202020202020202020202020202020202c4f4f6f6f6f6f4f4f4f6c4f4f4f4f4f4f4f4f404f2a2c602a2a2a2a2a2a2a2a2c6f5e2a2a2a202020202a2a2a2a2020202a2a2a2a2a2a2a3d4f4f6f2a202020202020202020202020202020202020202020202020202020202020202020202020202020202020202020202020202020202020202020202020202020202020202020202020202020202020202020202020202a4f4f4f4f4f4f4f4f4f4f4f4f4f404f4f4f4f4f4f4f404f6f2a2a2a2a2a2a2a2a2a2a2c602a2a2a6f6c2a2a20202020202a202a2a2a2a2a2a6c4f404f4f4f602a202020202020202020202020202020202020202020202020202020202020202020202020202020202020202020202020202020202020202020202020202020202020202020202020202020202020202020202c4f4f40404f4f4f4f4f4f4f4f4f404f4f4f6f4f4f4f4f4f4f4f4f602a2a5d5d5d5d2a2a2a2a2a2a2a6f602020202020202a2a2a2a2a2a2a2c6f4f404f4f4f4f4f6f5e2a2a2a2a2a2a2a20202020202020202020202020202020202020202020202020202020202020202020202020202020202020202020202020202020202020202020202020202020202020202020202020202c4f6f4f5e4f4f4f4f4f4f4f4f4f4f404f6f6f4f4f4f4f4f4f4f40404040404f4f4f4f6f4f4f4f4f4f4f5d6020202a2a2a2a2a2a2a2a3d6f4f4f4f4f4f4f4f4f4f4f5e2a2a2a20202020202a2a2c4f406c202020202020202020202020202020202020202020202020202020202020202020202020202020202020202020202020202020202020202020202020202020202020202c6f2a6f4f4f4f4f4f4f4f4f4f4f4f4f404f4f4f4f6f4f4f4f4f40404040404f4f4f4f4f4f4f4f4f4f4f4f4f4f4f4f4f4f6c2a2a2c6f4f4f4f4f4f4f4f4f4f4f4f4f5e2a2a2a2a202020202a2a3d406c20202020202020202020202020202020202020202020202020202020202020202020202020202020202020202020202020202020202020202020202020202020202020204f6f6f6f4f4f4f4f4f4f4f4f4f4f4f4f4f4f4f4f6f4f4f4f4f40404040404f4f4f4f4f4f4f4f4f4f4f4f4f4f4f4f4f4f4f4f4f6f6f6f6f6f6f4f4f4f4f4f4f4f4f4f6f2a2a2a2a2a202a2a2a2a2c6c202020202020202020202020202020202020202020202020202020202020202020202020202020202020202020202020202020202020202020202020202020202020202c4f4f4f4f4f4f4f4f4f4f4f4f4f4f4f4f4f4f4f4f4f4f4f4f4f404040404040404f4f4f4f4f4f4f4f4f4f4f4f4f4f4f4f4f4f4f4f4f2c5e6f6f6f6f6f4f4f4f404f4f4f6f2a2a2a2a2a2a2a2a2a2a2a202020202020202020202020202020202020202020202020202020202020202020202020202020202020202020202020202020202020202020202020202020202020203d4f4f4f4f4f4f4f4f4f4f4f4f4f4f4f4f4f4f4f4f4f4f4f4f4f4f4f404040404f4f4f4f4f4f4f4f4f4f4f4f4f4f4f4f4f4f4f4f4f4f4f5e2c2a2a6c6f6f4f4f4f404f4f6f5e2a2a2a2a2a5d6f6f6f4f5e20202020202020202020202020202020202020202020202020202020202020202020202020202020202020202020202020202020202020202020202020202020202020204f404f4f4f4f4f4f4f4f4f4f4f4f4f4f4f4f4f4f4f4f4f4f4f4f4f4f4f4f40404f4f4f4f4f4f4f4f4f4f4f4f4f4f4f4f4f4f4f4f4f4f4f5e2a2a3d6f6f4f4f40404f4f6c6c4f4f6f6c2c6f4f4f406c2020202020202020202020202020202020202020202020202020202020202020202020202020202020202020202020202020202020202020202020202020202020202020203d4f4f4f4f4f4f4f4f4f4f4f4f4f4f4f4f4f4f4f6f4f4f4f4f4f4f4f4f4f4f4f4f4f4f4f4f4f4f4f4f4f4f4f6f4f4f4f4f4f4f4f4f4f4f6f602a2c6f6f4f4f40404f4f4f404f4f4f4f4f4040406c20202020202020202020202020202020202020202020202020202020202020202020202020202020202020202020202020202020202020202020202020202020202020205d4f4f4f4f4f4f4f4f4f4f404f4f4f4f4f4f4f4f4f6f6f6f4f4f4f4f4f4f4f4f4f4f4f4f4f4f4f4f6f6f6f6f6f6f6f6f6f6f6f6f6f6f6f4f4f6f6f5e2a3d6f6f4f40404f404040404040404040404f202020202020202a2a2a2a2a2a2a20202020202020202020202020202020202020202020202020202020202020202020202020202020202020202020202020202020203d4f4f4f4f4f4f4f4f4f4f4f4f4f404f4f4f4f4f4f4f4f6f6f6f6f6f4f4f4f4f4f4f4f4f4f4f4f4f4f6f6f6f6f6f6f6f6f6f6f6f6f6f6f6f6f6f6f6f6f6f2a6c6f4f4f404040404040404040404040404f6f3d2a2a2a2a2a2a2a2c2a2a2a2a3d6f6f5e2a2a202020202020202020202020202020202020202020202020202020202020202020202020202020202020202020202c4f4f4f4f4f4f4f4f4f4f4f4f4f4f4f4f4f4f4f4f4f6f6f6f6f6f6f6f6f6f6f4f4f4f4f4f4f4f4f6f6f6f6f6f6f6f6f6f6f602c6c6f6f6f6f6f6f4f4f4f4f4f4f4040404040404040404040404040404f4f6f6c2a2a2a2a2a2a2a3d5e2a2a2a3d6f6c2a2a2a2a2a2a2a2a20202020202020202020202020202020202020202020202020202020202020202020202020202020203d4f4f4f4f4f4f4f4f4f4f4f4f4f4f4f4f4f4f4f4f4f6c6f602a602a2a6c6f6f6f6f6f4f4f4f6f6f6f6f6f6f6f6c602a2a2a2a5b6f6f4f4f4f4f4f4f4f4f4f4f4f4f4f4f4f4f4f40404040404040404f4f4f4f6f5d5d5d2a2a2a2c6f6f602a2a2a2a2a2a2a2a2a2a2a2a2a2a2a2020202020202020202020202020202020202020202020202020202020202020202020202020204f4f4f4f4f4f4f4f4f4f4f4f4f4f4f4f4f4f4f4f4f6f602a2a2a2a2a2a2a2a2a5b6f6f6f6f6f6f6f6f6f6f6f6f5b5b2a2c4f4f4f4f40404f4f4f4f4f4f4f4f4f4f4f4f4f4f4f4f4f4040404040404040404f4f4f4f4f4f6f6f6f6f6f6f6f602a2a2a2a2a2a2a2a2a2a2a2a2a2a2a2a2020202020202020202020202020202020202020202020202020202020202020202020203d4f4f4f4f4f4f4f4f4f4f4f4f4f4f4f4f4f4f4f4f404f4f6c602a2a2a2a2a2a2a2a2a2a2a2a5b6c6f6f6f6f6c6c4f4f4f4f4f4f4f4f4f4f4f4f4f4f4f4f4f4f4f4f4f4f4f4f4f4f4040404040404040404040404f4f4f4f4f6f6f4f6f6f6f6f2a2a2a2a2a2a2a2a2a2a2a2a2a2a2a2a2a20202020202020202020202020202020202020202020202020202020202020202020204f4f4f4f4f4f4f4f4f4f4f4f4f4f4f4f4f4f4f4f4f4f404040404f602a2a2a2a2a2a2a2a2a2a2a2a2c6c6f4f4f4f4f4f4f4f4f4f4f4f4f4f4f4f4f4f4f4f4f4f4f4f4f4f4f4f4f4f4f4f4f4f404040404040404040404f4f4f4f4f4f4f4f6f6f6f602a2a2a2a2a2a2a2a2a2a2a2a2a2c6f4f4f6c60202020202020202020202020202020202020202020202020202020202020202c4f4f4f4f4f4f4f4f4f4f4f4f4f4f4f4f4f4f4f4f4f4f4f4040404f6c202a2a2a2a2a2a2a2a2a2a2c6f4f4f4f4f4f4f4f4f4f4f4f4f4f4f4f4f4f4f4f4f4f4f4f4f4f4f4f4f4f4f4f4f4f4f4040404040404040404040404f4f4f4f4f4f4f6f6f6f6c5d2a2a2a2a2a2a2a2a2a5d6f4f4f4f6f6c6c202020202020202020202020202020202020202020202020202020202020202020202c6c4f4f4f4f4f4f4f4f4f4f4f4f6f6f6f4f4f4f4f4f4f4f4f4f5e202a2a2a2a2a2a2a2a6f6f6f6f4f4f4f4f4f4f4f4f4f4f4f4f4f4f4f4f4f4f4f4f4f4f4f4f4f4f4f4f4f4f4f4f4f40404040404040404040404040404f4f4f4f4f6f6f6f6f6f6f602a2a2a5d5d6c6f4f6f6f602a2a602c5e20202020202020202020202020202020202020202020202020202020202020202020204f4f4f4f4f4f4f4f4f404f4f6f6f6f4f4f4f4f4f4f4f4f4f4f5e2a202a2a2a2a5d6f6f6f6f4f4f4f4f4f4f4f4f4f4f4f4f4f4f4f4f4f4f4f4f4f4f4f4f4f4f4f4f4f4f4f4f4f4f404040404040404040404040404040404f4f4f6f6f6f6f6f2a2a2a2a6f6f6f6f6f6c5b2a2a6f6f3d5e2a2a2020202020202020202020202020202020202020202020202020202020202020202c4f4f4f4f4f4f4f4f4f404f6f5b6f6f6f6f4f4f4f4f4f4f4f4f4f5e20202a2a6f6f6f6f6f6f6f4f4f4f4f4f4f4f4f4f4f4f4f4f4f4f4f4f4f4f4f4f4f4f4f4f4f4f4f4f4f4f4f4f4040404f4f4f40404040404040404040404f4f6f6f602a2c5d5d5d5d602a2a2c5b5d5d5d6c6f6f6f6f6f2a202020202020202020202020202020202020202020202020202020202020202020204f4f4f4f4f4f4f40404f6f6c2a2c6f6f6f6f6f6f6f6f6f6f6f6f4f602a2a2a2a6f6f6f6f6f6f6f6f6f6f6f6f4f4f4f4f4f4f4f4f4f4f4f4f4f4f4f4f4f4f4f4f4f4f4f4f4f4f4f40404f4f4f4f4f5e5b4f404040404040404f4f6f6f6f6f6f6f6f6f5e2a2a2a2a2a2a2a6f6f6f6f6f6f6f5e202020202020202020202020202020202020202020202020202020202020202020204f4f4f4f4f4040404f6c2a2a2a2a2a2a6c6f6f6f6f602a5b5b6f6f6f2a2a2a2a2c6f6f6f6f6f6f6f6f6f6f6f6f6f6f6f6f6f6f6f6f6f6f6f6f6f4f4f4f4f4f4f4f4f4f4f4f4f4040404f4f4f4f4f4f6f6c4f404040404040404f6f6f6f2a2a2a2a2a2a2a2a2a2a2a2a2a2a6c6f6f6f6f6f6f2a2020202020202020202020202020202020202020202020202020202020202020206c4f4f4f404040404f5e2a2a2a2a2a2a2a2a2a2c6f2a2a2a2a2c6f6f6f2a2a2a3d6f6f6f6f6f6f6f6f6f6f6f6f6f6f6f6f6f6f6f6f6f6f6f6f6f6f6f6f4f4f4f4f4f4f4f4f4f4040404f4f4f4f4f4f6f6f6f6f4040404040404f6f6f5e2a2a2a2a2a2a2a2a2a2a2a2a2a2a2a2a6f6f6f6f2a6c2020202020202020202020202020202020202020202020202020202020202020203d4f4f404040404f6c2a2a2a2a2a2a2a2a2a2a2a5e2a2a2a2a2a6f6f6f5e2c6f6f6f6f6f6f6f6f6f6f6f6f6f6f6f6f6f6f6f6f6f6f6f6f6f6f5e6c6f6f6f6f4f4f4f4f4f4f4f4040404f4f4f4f4f4f4f4f4f6f4f40404040404f4f5e2a2a2a2a2a2a2a2a2a2a2a2a2a2a2a2a2a2a5b602a2a2a6c20202020202020202020202020202020202020202020202020202020202020203d4f40404040404f602a2a2a2a2a2a2a2a2a2a2a6c5e2a2a2a2a2a6f6f6f6f6f20202020202020202020202020202020202020202020202020202020202020202020202020202020202020202020204f4f6f4f4f40404040404f4f6f5e2a2a2a2a2a2a2a2a2a2a2a2a2a2a2a2a2a2a2a2a2a2a2c60202020202020202020202020202020202020202020202020202020202020203d4f40404040406f5e2a2a2a2a2a2a2a2a2a2a2a6f6f2a2a2a2a2a6c6f6f6f6f20202048617070792056616c656e74696e65e2809973204461792120e68891e79a84e78caae78caae5ae9d20416e6769652053756e2020404f4f4f4040404040404f4f6f2a2a2a2a2a2a2a2a2a2a2a2a2a2a2a2a2a2a2a2c6c6c5d6f4f4f5e2c6f6f202020202020202020202020202020202020202020202020202a6f40404040404f6f2a2a2a2a2a2a2a2a2a2a2a2a6f6f6f6f602a2a2a6f6f6f6f20202020202020202020202020202020202020323032302d30322d31342020202020202020202020202020202020206f6f6f6f40404040404f4f4f6f6f602a2a2a2a2a2a2a2a2a2a2a2a2a6c6f6f4f4f4f4f4f5b2a2a2a2a2c602020202020202020202020202020202020202020202020202a6f4f40404040404f6f2a2a2a2a2a2a2a2a2a2a2a2a3d6f6f6f6f6c2a606f6f6f6f202020202020202020202020202020204c6f766520596f7520466f72657665722020202020202020202020202020206f6f6f6f4f404040404f4f4f6f6f6f2a2a2a2a2a2a2a2a2a2a2a2a2a5b2c6f5b602a2a2a2a2a2a2a2a602020202020202020202020202020202a20202a20202020202a2c6f4f40404040404f6f5e2a2a2a2a2a2a2a2a2a2a2a3d6f6f6f6f6f6f6f6f6f6f6f20202020202020202020202020202020202020202020202020202020202020202020202020202020202020202020206f6f6f6f4f404040404f4f4f6f6f6f602a2a2a2a2a2a2a2a2a2a2a2a2a2a2a2a2a2a2a2a2a2a2a6f6f602020202020202020202020202c6c5b6f6f6f6f6f6f6f6f6c5d5e4f4040404040404f4f6f6f602a2a2a2a2a2a2a2a2a5d6f6f6f6f6f6f6f6f6f6f6f6f6f6f6f6f6f4f4f4f4f4f4f4f4f4f4f4f6f6f6f6f6f6f6f6f6f6f6f6f6f6f6f4f4f4f4f4f4f4f4f4f4040404f4f6f6f6c4f4040404040404f4f4f6f6f6f6c2a2a2a2a2a2a2a2a2a2a2a2a2a2a2a2a2a2a2a2a2a2a6c6f5e202020202020202020202020202c6f6f5e3d5b6f6f6f6f6f6f6f4f4f4f4040404040404f6f6f6f602a6c6f6f6f6f6f6f6f6f6f6f6f6f6f6f6f6f6f6f6f6f6f6f6f4f4f4f4f4f4f4f4f4f4f6f6f6f6f6f6f6f6f6f6f6f6f6f6f6f6f4f4f4f4f4f4f4f4f4f4f4f40404f6f4f4040404040404040404f4f4f6f6f6f2a602a2a2a2a2a6f5d6c4f4f6c2a2c5d5d602a2a2c5d6f6f5e2020202020202020202020202020203d5d2a2a2a2a2a6c6f6f6f6f4f4f4f4f4f404040404f4f6f6f6f6c6f6f6f6f6f6f6f6f6f6f6f6f6f6f6f6f6f6f6f4f4f6f4f4f4f4f4f4f4f4f6f6f6f6f6f6f6f6c6f6f6f6f6f6f6f6f6f6f6f6f6f4f4f4f4f4f4f4f4f4f4f40404f4f4040404040404040404f4f4f6f6f6f6f6c5d4f4f4f40404040404040404040404040404060202020202020202020202020202020202020206c5b602a2a6f6f6f5b5b5b5b6f6f6f6f4f4f404040404f6f6f6f6f6f6f6f6f6f6f6f6f6f6f4f4f4f4f4f4f6f6f6f4f4f4f4f4f4f4f6f6f6f6f6f6c5b2a2a2a2a2a2a2a2c5d6f6f6f6f6f6f6f6f6f4f4f4f404040404040404040404f4f40404040404040404f4f4f4f4040404040404040404040404040405b2020202020202020202020202020202020202020202020202020202c6f603d6c2a2a2a2a2a2a2a2a2c6f6f6f6f4f4f40404f4f4f6f6f6f6f6f6f6f6f4f4f4f4f4f4f4f4f4f4f4f4f6f4f4f4f4f4f4f6f6f6f6f6f5b2a2a2a2a2a2a2a6f6f6f6f6f6f6f6f6f6f6f4f6f4f4040404040404040404040404f4f4f4040404040404040404040404040404040404040404040602020202020202020202020202020202020202020202020202020202020203d6c2c6f2a2a2a2a2a2a2a2a2a2a2a2a2a2a6f6f6f4f404f4f6f6f6f6f6f6f6f6f6f4f4f4f4f4f4f4f4f4f4f4f4f4f4f4f4f4f4f6f6f6f6f2a2a2a2a2a2a6c6c6f6f6f6f6f6f6f4f6f40404f4040404040404040404040404040404f4f4f404040404040404040404040404f404040406c6020202020202020202020202020202020202020202020202020202020202020202020203d4f4f4f6c5d602a2a2a2a2a2a2a2a2a2a2a3d6f6f6c4f4f6f6f6f6f6f6f6f6f6f6f4f4f4f4f4f4f4f4f4f4f4f4f4f4f4f4f4f4f6f6f6f6f5e2a2c5b6f6f6f6f4f4f4040404040404040404040404040404040404040404040404f4f404040404040404040404040404040406c6020202020202020202020202020202020202020202020202020202020202020202020202020206c40404040404040404f4f4f4f4f6f6f6f6f6f6f6f6f6f5d6f6f6f6f6f6f6f4f6f6c2a2a2a2a5d5d5d5d5d5d4f4f4f4f4f4f4f4f4f6f6f6f6f6f6f4f4f4f4040404040404040404040404040404040404040404040404040404f4040404040404040404040404040404f602020202020202020202020202020202020202020202020202020202020202020202020202020202c404040404040404040404040404040404f4f4f6f6f6c5d6f6f6f6f6f6f6f6f6f6f6f4f4f4f4f4f40404040404040404f4f4f4f4f4f4f4040404f4f4f4040404040404040404040404040404040404040404040404040404040404040404040404040404040404040404f202020202020202020202020202020202020202020202020202020202020202020202020202020202c404040404040404040404040404040404f4f6f6f4f4f4040404040404040404040404040404040404040404040404f4f4040404040404040404040404040404040404040404040404040404040404040404040404040404040404040404040404040404040404040404f602020202020202020202020202020202020202020202020202020202020202020202020202020205d4040404040404040404040404040404040404040404040404040404040404040404040404040404040404040404040404040404040404040404040404040404040404040404040404040404040404040404040404f40404040404040404040404040404040404040404f20202020202020202020202020202020202020202020202020202020202020202020202020202020404040404040404040404040404040404040404040404040404040404040404040404040404040404040404040404040404040404040404040404040404040404040404040404040404040404040404040404040404040404040404040404040404040404040404040404f202020202020202020202020202020202020202020202020202020202020202020202020202020203d40406c4f40404040404040404040404040404040404040404040404040404040404040404040404040404040404040404040404040404040404040404040404040404040404040404040404040404040404040404040404040404040404040404040404040404040406c20202020202020202020202020202020202020202020202020202020202020202020202020202020203d40405e202c4040404040404040404040404040404040404040404040404040404040404040404040404040404040404040404040404040404040404040404040404040404040404040404040404040404040404040404040404040404040404040404040404040406c2020202020202020202020202020202020202020202020202020202020202020202020202020202020202c404040602020202c6c40404040404040404040404040404040406c5b605b6c40404040404040404040404040404040404040404040404040404040404040404040404040404040404040404040404040404040404040404040404040404040404040404040404f6020202020202020202020202020202020202020202020202020202020202020202020202020202020202020203d40404060202020202020202020202020202c5b6c40404040406c5d202020202c6c404040404040404040404040404040404040404040404040404040404040404040404040404040404040404040404040404040404040404040404040404040404040406020202020202020202020202020202020202020202020202020202020202020202020202020202020202020202020202c4040406c20202020202020205d5d6c4040404040404040404040404040602c40406c4040404040404040404040404040404040404040404040404040404040404040404040404040404040404040404040404040404040404040404040404040406c2020202020202020202020202020202020202020202020202020202020202020202020202020202020202020202020202020206c40404040404040404040404040404040404040404040404040404040404040404040404040404040404040404040404040404040404040404040404040404040404040404040404040404040404040404040404040404040404040404060202020202020202020202020202020202020202020202020202020202020202020202020202020202020202020202020202020202020206c40406c5b20202020202020202020202020202020202c6c40404040404040404040404040404040404040404040404040404040404040404040404040404040404040404040404040404040404040404040404040405b6020202020202020202020202020202020202020202020202020202020202020202020202020202020202020202020202020202020202020202020202020202020202020202020202020202020202020202020202020202c404040404040404040404040404040405b2c404040404040404040404040404040404040404040404040202020202020202020202020202020202020202020202020202020202020202020202020202020202020202020202020202020202020202020202020202020202020202020202020202020202020202020202020202020202020202020202020202020202020202020204f206c4040404040404040404040405e203d404040404040404040404040404040404040404040406c2020202020202020202020202020202020202020202020202020202020202020202020202020202020202020202020202020202020202020202020202020202020202020202020202020202020202020202020202020202020202020202020202020202020202020202020405d20202c4040404040404040406c20203d4040404040404040404040404040404040404040402a2020202020202020202020202020202020202020202020202020202020202020202020202020202020202020202020202020202020202020202020202020202020202020202020202020202020202020202020202020202020202020202020202020202020202020202020202c4040406c60202c404040404f602020203d404040404040404040404040404040404040404f2020202020202020202020202020202020202020202020202020202020202020202020202020202020202020202020202020202020202020202020202020202020202020202020202020202020202020202020202020202020202020202020202020202020202020202020202020202020202c4f404040406c6020202020203d4040404040404040404040404040404040404020202020202020202020202020202020202020202020202020202020202020202020202020202020202020202020202020202020202020202020202020202020202020202020202020202020202020202020202020202020202020202020202020202020202020202020202020202020205d40404040406c20202020202020203d404040404040404040404040404040404040602020202020202020202020202020202020202020202020202020202020202020202020202020202020202020202020202020202020202020202020202020202020202020202020202020202020202020202020202020202020202020202020202020202020202020202020205d6c4040404040404f60202020202020202020203d40404040404040404040404040404040405e202020202020202020202020202020202020202020202020202020202020202020202020202020202020202020202020202020202020202020202020202020202020202020202020202020202020202020202020202020202020202020202020202020202020202c5d4040404040404040404f60202020202020202020202020204f40404040404040404040404040404040402020202020202020202020202020202020202020202020202020202020202020202020202020202020202020202020202020202020202020202020202020202020202020202020202020202020202020202020202020202020202020202020202020202020206c40404040404040406c60202020202020202020202020202020202040404040404040404040404040404040405e2020202020202020202020202020202020202020202020202020202020202020202020202020202020202020202020202020202020202020202020202020202020202020202020202020202020202020202020202020202020202020202020202020202c4040404040406c5b20202020202020202020202020202020202020202020404040404040404040404040404040404020202020202020202020202020202020202020202020202020202020202020202020202020202020202020202020202020202020202020202020202020202020202020202020202020202020202020202020202020202020202020202020202020202c40404040405b20202020202020202020202020202020202020202020202020204040404040404040404040404040404060202020202020202020202020202020202020202020202020202020202020202020202020202020202020202020202020202020202020202020202020202020202020202020202020202020202020202020202020202020202020202020202020206c40405b2020202020202020202020202020202020202020202020202020202020204040404040404040404040404040406020202020202020202020202020202020202020202020202020202020202020202020202020202020202020202020202020202020202020202020202020202020202020202020202020202020202020202020202020202020202020202020202c406c2020202020202020202020202020202020202020202020202020202020202020202040404040404040404040404040406c202020202020202020202020202020202020202020202020202020202020202020202020202020202020202020202020202020202020202020202020202020202020202020202020202020202020202020202020202020202020202020206c404020202020202020202020202020202020202020202020202020202020202020202020202040404040404040404040404040402020202020202020202020202020202020202020202020202020202020202020202020202020202020202020202020202020202020202020202020202020202020202020202020202020202020202020202020202020202020202020206c40406020202020202020202020202020202020202020202020202020202020202020202020202020404040404040404040404040405e2020202020202020202020202020202020202020202020202020202020202020202020202020202020202020202020202020202020202020202020202020202020202020202020202020202020202020202020202020202020206c406c2020202020202020202020202020202020202020202020202020202020202020202020202020202020404040404040404040404040406020202020202020202020202020202020202020202020202020202020202020202020202020202020202020202020202020202020202020202020202020202020202020202020202020202020202020202020202020202020204040402020202020202020202020202020202020202020202020202020202020202020202020202020202020204040404040404040404040405e20202020202020202020202020202020202020202020202020202020202020202020202020202020202020202020202020202020202020202020202020202020202020202020202020202020202020202020202020202020202040405e202020202020202020202020202020202020202020202020202020202020202020202020202020202020404040404040404040404060202020202020202020202020202020202020202020202020202020202020202020202020202020202020202020202020202020202020202020202020202020202020202020202020202020202020202020202020202020202020206c6c20202020202020202020202020202020202020202020202020202020202020202020202020202020202020404040404040404040406020202020202020202020202020202020202020202020202020202020202020202020202020202020202020202020202020202020202020202020202020202020202020202020202020202020202020202020202020202020202020202020202020202020202020202020202020202020202020202020202020202020202020202020202020202020204040404040404040404020202020202020202020202020202020202020202020202020202020202020202020202020202020202020202020202020202020202020202020202020202020202020202020202020202020202020202020202020202020202020202020202020202020202020202020202020202020202020202020202020202020202020202020202020202020202040404040404040404040602020202020202020202020202020202020202020202020202020202020202020202020202020202020202020202020202020202020202020202020202020202020202020202020202020202020202020202020202020202020202020202020202020202020202020202020202020202020202020202020202020202020202020202020202020202020404040404040404040405e20202020202020202020202020202020202020202020202020202020202020202020202020202020202020202020202020202020202020202020202020202020202020202020202020202020202020202020202020202020202020202020202020202020202020202020202020202020202020202020202020202020202020202020202020202020204040404040404040406c4f602020202020202020202020202020202020202020202020202020202020202020202020202020202020202020202020202020202020202020202020202020202020202020202020202020202020202020202020202020202020202020202020202020202020202020202020202020202020202020202020202020202020202020202020202020202040404040404040405e20203d4f60202020202020202020202020202020202020202020202020202020202020202020202020202020202020202020202020202020202020202020202020202020202020202020202020202020202020202020202020202020202020202020202020202020202020202020202020202020202020202020202020202020202020202020202020202040404040404040406c202020203d6c2020202020202020202020202020202020202020202020202020202020202020202020202020202020202020202020202020202020202020202020202020202020202020202020202020202020202020202020202020202020202020202020202020202020202020202020202020202020202020202020202020202020202020202020202040404040404040406c202020202c4f2020202020202020202020202020202020202020202020202020202020202020202020202020202020202020202020202020202020202020202020202020202020202020202020202020202020202020202020202020202020202020202020202020202020202020202020202020202020202020202020202020202020202020202020206c40404040404040405e2020202020202020202020202020202020202020202020202020202020202020202020202020202020202020202020202020202020202020202020202020202020202020202020202020202020202020202020202020202020202020202020202020202020202020202020202020202020202020202020202020202020202020202020202020202020202040404040404040405e202020202020202020202020202020202020202020202020202020202020202020202020202020202020202020202020202020202020202020202020202020202020202020202020202020202020202020202020",
  "source": "pragma solidity 0.5.16;\n\ncontract HappyValentinesDay {\nstring public love =\n\"                                                                                                                                                    \"\n\"                                                          ****              *]]]]*                                                                  \"\n\"                                   *****,l]]**          **l******         **,[oo,`                                                                  \"\n\"                               ,o]]]]]]**lOOOOOOl    ***********************  *l`*******                                                            \"\n\"                               OooooooOOOO@OOOOOo[**[***********************   *`*******ol                                                          \"\n\"                              ,OOooooOOOlOOOOOOOO@O*,`********,o^***    ****   *******=OOo*                                                         \"\n\"                            *OOOOOOOOOOOOO@OOOOOOO@Oo**********,`***ol**     * ******lO@OOO`*                                                       \"\n\"                           ,OO@@OOOOOOOOO@OOOoOOOOOOOO`**]]]]*******o`      *******,oO@OOOOOo^*******                                               \"\n\"                           ,OoO^OOOOOOOOOO@OooOOOOOOO@@@@@OOOOoOOOOOO]`  ********=oOOOOOOOOOO^***     **,O@l                                        \"\n\"                           ,o*oOOOOOOOOOOOO@OOOOoOOOO@@@@@OOOOOOOOOOOOOOOOOOl**,oOOOOOOOOOOOO^****    **=@l                                         \"\n\"                           OoooOOOOOOOOOOOOOOOOoOOOO@@@@@OOOOOOOOOOOOOOOOOOOOOooooooOOOOOOOOOo***** ****,l                                          \"\n\"                         ,OOOOOOOOOOOOOOOOOOOOOOOOO@@@@@@@OOOOOOOOOOOOOOOOOOOOO,^oooooOOO@OOOo***********                                           \"\n\"                        =OOOOOOOOOOOOOOOOOOOOOOOOOOO@@@@OOOOOOOOOOOOOOOOOOOOOOO^,**looOOO@OOo^*****]oooO^                                           \"\n\"                         O@OOOOOOOOOOOOOOOOOOOOOOOOOOOO@@OOOOOOOOOOOOOOOOOOOOOOO^**=ooOO@@OOllOOol,oOO@l                                            \"\n\"                         =OOOOOOOOOOOOOOOOOOOoOOOOOOOOOOOOOOOOOOOOOOOoOOOOOOOOOOo`*,ooOO@@OOO@OOOOO@@@l                                             \"\n\"                       ]OOOOOOOOOO@OOOOOOOOOoooOOOOOOOOOOOOOOOOoooooooooooooooOOoo^*=ooO@@O@@@@@@@@@@O       *******                                \"\n\"                     =OOOOOOOOOOOOO@OOOOOOOOoooooOOOOOOOOOOOOOooooooooooooooooooooo*loOO@@@@@@@@@@@@@Oo=*******,****=oo^**                          \"\n\"                    ,OOOOOOOOOOOOOOOOOOOOOooooooooooOOOOOOOOoooooooooo`,looooooOOOOOO@@@@@@@@@@@@@@@OOol*******=^***=ol********                     \"\n\"                    =OOOOOOOOOOOOOOOOOOOOOlo`*`**loooooOOOoooooool`****[ooOOOOOOOOOOOOOOOOO@@@@@@@@OOOOo]]]***,oo`***************                   \"\n\"                    OOOOOOOOOOOOOOOOOOOOOo`*********[oooooooooooo[[*,OOOO@@OOOOOOOOOOOOOOOOO@@@@@@@@@OOOOOOooooooo`****************                 \"\n\"                   =OOOOOOOOOOOOOOOOOOOO@OOl`************[loooollOOOOOOOOOOOOOOOOOOOOOOOOOO@@@@@@@@@@@@OOOOOooOoooo*****************                \"\n\"                   OOOOOOOOOOOOOOOOOOOOOO@@@@O`************,loOOOOOOOOOOOOOOOOOOOOOOOOOOOOOOOOO@@@@@@@@@@OOOOOOOOooo`*************,oOOl`            \"\n\"                   ,OOOOOOOOOOOOOOOOOOOOOOO@@@Ol **********,oOOOOOOOOOOOOOOOOOOOOOOOOOOOOOOOOOO@@@@@@@@@@@@OOOOOOOoool]*********]oOOOoll            \"\n\"                      ,lOOOOOOOOOOOOoooOOOOOOOOO^ ********ooooOOOOOOOOOOOOOOOOOOOOOOOOOOOOOOOOO@@@@@@@@@@@@@@OOOOOoooooo`***]]loOoo`**`,^           \"\n\"                        OOOOOOOOO@OOoooOOOOOOOOOO^* ****]ooooOOOOOOOOOOOOOOOOOOOOOOOOOOOOOOOOOO@@@@@@@@@@@@@@@@OOOooooo****oooool[**oo=^**          \"\n\"                       ,OOOOOOOOO@Oo[ooooOOOOOOOOO^  **oooooooOOOOOOOOOOOOOOOOOOOOOOOOOOOOOOOOO@@@OOO@@@@@@@@@@@OOoo`*,]]]]`**,[]]]looooo*          \"\n\"                        OOOOOOO@@Ool*,ooooooooooooO`****ooooooooooooOOOOOOOOOOOOOOOOOOOOOOOOOOO@@OOOOO^[O@@@@@@@OOoooooooo^*******ooooooo^          \"\n\"                        OOOOO@@@Ol******loooo`*[[ooo****,oooooooooooooooooooooooooOOOOOOOOOOOO@@@OOOOOOolO@@@@@@@Oooo**************loooooo*         \"\n\"                        lOOO@@@@O^*********,o****,ooo***=ooooooooooooooooooooooooooooOOOOOOOOO@@@OOOOOOoooo@@@@@@Ooo^****************oooo*l         \"\n\"                        =OO@@@@Ol***********^*****ooo^,oooooooooooooooooooooooooo^looooOOOOOOO@@@OOOOOOOOOoO@@@@@OO^******************[`***l        \"\n\"                        =O@@@@@O`***********l^*****ooooo                                               OOoOO@@@@@OOo^**********************,`       \"\n\"                        =O@@@@@o^***********oo*****loooo   Happy Valentine’s Day! 我的猪猪宝 Angie Sun  @OOO@@@@@@OOo*******************,ll]oOO^,oo  \"\n\"                       *o@@@@@Oo************oooo`***oooo                   2020-02-14                  oooo@@@@@OOOoo`*************looOOOOO[****,`  \"\n\"                      *oO@@@@@Oo************=ooool*`oooo                Love You Forever               ooooO@@@@OOOooo*************[,o[`********`   \"\n\"            *  *     *,oO@@@@@Oo^***********=ooooooooooo                                               ooooO@@@@OOOooo`***********************oo`   \"\n\"         ,l[ooooooool]^O@@@@@@OOoo`*********]oooooooooooooooooOOOOOOOOOOOoooooooooooooooOOOOOOOOO@@@OOoolO@@@@@@OOOoool**********************lo^    \"\n\"         ,oo^=[oooooooOOO@@@@@@Oooo`*loooooooooooooooooooooooOOOOOOOOOOooooooooooooooooOOOOOOOOOOO@@OoO@@@@@@@@@OOOooo*`*****o]lOOl*,]]`**,]oo^     \"\n\"          =]*****looooOOOOO@@@@OOoooloooooooooooooooooooOOoOOOOOOOOoooooooloooooooooooooOOOOOOOOOO@@OO@@@@@@@@@OOOooool]OOO@@@@@@@@@@@@@@@`         \"\n\"          l[`**ooo[[[[ooooOO@@@@OooooooooooooooOOOOOOoooOOOOOOOoooool[*******,]oooooooooOOO@@@@@@@@@@OO@@@@@@@@OOOO@@@@@@@@@@@@@@@[                 \"\n\"          ,o`=l********,ooooOO@@OOOooooooooOOOOOOOOOOOOoOOOOOOooooo[*******oooooooooooOoO@@@@@@@@@@@@OOO@@@@@@@@@@@@@@@@@@@@@@@`                    \"\n\"          =l,o**************oooO@OOoooooooooOOOOOOOOOOOOOOOOOOoooo******lloooooooOo@@O@@@@@@@@@@@@@@@OOO@@@@@@@@@@@@@O@@@@l`                        \"\n\"           =OOOl]`***********=oolOOooooooooooOOOOOOOOOOOOOOOOOOoooo^*,[ooooOO@@@@@@@@@@@@@@@@@@@@@@@@OO@@@@@@@@@@@@@@@@l`                           \"\n\"           l@@@@@@@@OOOOOooooooooo]oooooooOol****]]]]]]OOOOOOOOOooooooOOO@@@@@@@@@@@@@@@@@@@@@@@@@@@O@@@@@@@@@@@@@@@O`                              \"\n\"         ,@@@@@@@@@@@@@@@@OOOool]oooooooooooOOOOO@@@@@@@@OOOOOOO@@@OOO@@@@@@@@@@@@@@@@@@@@@@@@@@@@@@@@@@@@@@@@@@@@@O                                \"\n\"        ,@@@@@@@@@@@@@@@@OOooOO@@@@@@@@@@@@@@@@@@@@@@@@OO@@@@@@@@@@@@@@@@@@@@@@@@@@@@@@@@@@@@@@@@@@@@@@@@@@@@@@@@@O`                                \"\n\"       ]@@@@@@@@@@@@@@@@@@@@@@@@@@@@@@@@@@@@@@@@@@@@@@@@@@@@@@@@@@@@@@@@@@@@@@@@@@@@@@@@@@@@O@@@@@@@@@@@@@@@@@@@@O                                  \"\n\"      @@@@@@@@@@@@@@@@@@@@@@@@@@@@@@@@@@@@@@@@@@@@@@@@@@@@@@@@@@@@@@@@@@@@@@@@@@@@@@@@@@@@@@@@@@@@@@@@@@@@@@@@@@O                                   \"\n\"     =@@lO@@@@@@@@@@@@@@@@@@@@@@@@@@@@@@@@@@@@@@@@@@@@@@@@@@@@@@@@@@@@@@@@@@@@@@@@@@@@@@@@@@@@@@@@@@@@@@@@@@@@@l                                    \"\n\"     =@@^ ,@@@@@@@@@@@@@@@@@@@@@@@@@@@@@@@@@@@@@@@@@@@@@@@@@@@@@@@@@@@@@@@@@@@@@@@@@@@@@@@@@@@@@@@@@@@@@@@@@@@l                                     \"\n\"     ,@@@`   ,l@@@@@@@@@@@@@@@@@l[`[l@@@@@@@@@@@@@@@@@@@@@@@@@@@@@@@@@@@@@@@@@@@@@@@@@@@@@@@@@@@@@@@@@@@@@@@O`                                      \"\n\"      =@@@`             ,[l@@@@@l]    ,l@@@@@@@@@@@@@@@@@@@@@@@@@@@@@@@@@@@@@@@@@@@@@@@@@@@@@@@@@@@@@@@@@@@`                                        \"\n\"       ,@@@l        ]]l@@@@@@@@@@@@@@`,@@l@@@@@@@@@@@@@@@@@@@@@@@@@@@@@@@@@@@@@@@@@@@@@@@@@@@@@@@@@@@@@@@l                                          \"\n\"         l@@@@@@@@@@@@@@@@@@@@@@@@@@@@@@@@@@@@@@@@@@@@@@@@@@@@@@@@@@@@@@@@@@@@@@@@@@@@@@@@@@@@@@@@@@@@@`                                            \"\n\"           l@@l[                 ,l@@@@@@@@@@@@@@@@@@@@@@@@@@@@@@@@@@@@@@@@@@@@@@@@@@@@@@@@@@@@@@[`                                                 \"\n\"                                     ,@@@@@@@@@@@@@@@@[,@@@@@@@@@@@@@@@@@@@@@@@@                                                                    \"\n\"                                      O l@@@@@@@@@@@@^ =@@@@@@@@@@@@@@@@@@@@@@l                                                                     \"\n\"                                      @]  ,@@@@@@@@@l  =@@@@@@@@@@@@@@@@@@@@@*                                                                      \"\n\"                                      ,@@@l` ,@@@@O`   =@@@@@@@@@@@@@@@@@@@O                                                                        \"\n\"                                          ,O@@@@l`     =@@@@@@@@@@@@@@@@@@@                                                                         \"\n\"                                        ]@@@@@l        =@@@@@@@@@@@@@@@@@@`                                                                         \"\n\"                                   ]l@@@@@@O`          =@@@@@@@@@@@@@@@@@^                                                                          \"\n\"                             ,]@@@@@@@@@O`             O@@@@@@@@@@@@@@@@@                                                                           \"\n\"                           l@@@@@@@@l`                 @@@@@@@@@@@@@@@@@^                                                                           \"\n\"                        ,@@@@@@l[                      @@@@@@@@@@@@@@@@@                                                                            \"\n\"                      ,@@@@@[                          @@@@@@@@@@@@@@@@`                                                                            \"\n\"                     l@@[                              @@@@@@@@@@@@@@@`                                                                             \"\n\"                  ,@l                                  @@@@@@@@@@@@@@l                                                                              \"\n\"                l@@                                    @@@@@@@@@@@@@@                                                                               \"\n\"              l@@`                                     @@@@@@@@@@@@@^                                                                               \"\n\"           l@l                                         @@@@@@@@@@@@@`                                                                               \"\n\"          @@@                                          @@@@@@@@@@@@^                                                                                \"\n\"          @@^                                          @@@@@@@@@@@`                                                                                 \"\n\"          ll                                           @@@@@@@@@@`                                                                                  \"\n\"                                                       @@@@@@@@@@                                                                                   \"\n\"                                                       @@@@@@@@@@`                                                                                  \"\n\"                                                       @@@@@@@@@@^                                                                                  \"\n\"                                                       @@@@@@@@@lO`                                                                                 \"\n\"                                                       @@@@@@@@^  =O`                                                                               \"\n\"                                                       @@@@@@@@l    =l                                                                              \"\n\"                                                       @@@@@@@@l    ,O                                                                              \"\n\"                                                      l@@@@@@@@^                                                                                    \"\n\"                                                       @@@@@@@@^                                                                                    \"\n;\n}\n",
  "sourcePath": "/Users/freddylee/blockchain_dev/ethereum/HappyValentinesDay/contracts/HappyValentinesDay.sol",
  "compiler": {
    "name": "solc",
    "version": "0.5.16+commit.9c3226ce.Emscripten.clang"
  },
  "schemaVersion": "3.0.23",
  "updatedAt": "2020-02-14T22:58:49.634Z",
  "devdoc": {
    "methods": {}
  },
  "userdoc": {
    "methods": {}
  }
}